{
    "_format": "hh-sol-artifact-1",
    "contractName": "RecommendBooks",
    "sourceName": "contracts/RecommendBooks.sol",
    "abi": [
        {
            "inputs": [],
            "stateMutability": "payable",
            "type": "constructor"
        },
        {
            "anonymous": false,
            "inputs": [
                {
                    "indexed": true,
                    "internalType": "address",
                    "name": "from",
                    "type": "address"
                },
                {
                    "indexed": false,
                    "internalType": "uint256",
                    "name": "timestamp",
                    "type": "uint256"
                },
                {
                    "indexed": false,
                    "internalType": "string",
                    "name": "author",
                    "type": "string"
                },
                {
                    "indexed": false,
                    "internalType": "string",
                    "name": "title",
                    "type": "string"
                }
            ],
            "name": "NewRecommend",
            "type": "event"
        },
        {
            "inputs": [],
            "name": "getAllRecommendations",
            "outputs": [
                {
                    "components": [
                        {
                            "internalType": "address",
                            "name": "pointer",
                            "type": "address"
                        },
                        {
                            "internalType": "string",
                            "name": "author",
                            "type": "string"
                        },
                        {
                            "internalType": "string",
                            "name": "title",
                            "type": "string"
                        },
                        {
                            "internalType": "uint256",
                            "name": "timestamp",
                            "type": "uint256"
                        }
                    ],
                    "internalType": "struct RecommendBooks.Recommendation[]",
                    "name": "",
                    "type": "tuple[]"
                }
            ],
            "stateMutability": "view",
            "type": "function"
        },
        {
            "inputs": [],
            "name": "getTotalRecommendations",
            "outputs": [
                {
                    "internalType": "uint256",
                    "name": "",
                    "type": "uint256"
                }
            ],
            "stateMutability": "view",
            "type": "function"
        },
        {
            "inputs": [
                {
                    "internalType": "address",
                    "name": "",
                    "type": "address"
                }
            ],
            "name": "lastRecommendAt",
            "outputs": [
                {
                    "internalType": "uint256",
                    "name": "",
                    "type": "uint256"
                }
            ],
            "stateMutability": "view",
            "type": "function"
        },
        {
            "inputs": [
                {
                    "internalType": "string",
                    "name": "_author",
                    "type": "string"
                },
                {
                    "internalType": "string",
                    "name": "_title",
                    "type": "string"
                }
            ],
            "name": "point",
            "outputs": [],
            "stateMutability": "nonpayable",
            "type": "function"
        }
    ],
    "bytecode": "0x60806040526200004f6040518060400160405280602081526020017f436f6e747261746f20636f6e7374727569646f20636f6d207375636573736f2e8152506200007760201b620006a01760201c565b606444426200005f9190620001c4565b6200006b919062000261565b60018190555062000308565b62000117816040516024016200008e919062000184565b6040516020818303038152906040527f41304fac000000000000000000000000000000000000000000000000000000007bffffffffffffffffffffffffffffffffffffffffffffffffffffffff19166020820180517bffffffffffffffffffffffffffffffffffffffffffffffffffffffff83818316178352505050506200011a60201b60201c565b50565b60008151905060006a636f6e736f6c652e6c6f679050602083016000808483855afa5050505050565b60006200015082620001a8565b6200015c8185620001b3565b93506200016e8185602086016200022b565b6200017981620002f7565b840191505092915050565b60006020820190508181036000830152620001a0818462000143565b905092915050565b600081519050919050565b600082825260208201905092915050565b6000620001d18262000221565b9150620001de8362000221565b9250827fffffffffffffffffffffffffffffffffffffffffffffffffffffffffffffffff0382111562000216576200021562000299565b5b828201905092915050565b6000819050919050565b60005b838110156200024b5780820151818401526020810190506200022e565b838111156200025b576000848401525b50505050565b60006200026e8262000221565b91506200027b8362000221565b9250826200028e576200028d620002c8565b5b828206905092915050565b7f4e487b7100000000000000000000000000000000000000000000000000000000600052601160045260246000fd5b7f4e487b7100000000000000000000000000000000000000000000000000000000600052601260045260246000fd5b6000601f19601f8301169050919050565b61127580620003186000396000f3fe608060405234801561001057600080fd5b506004361061004c5760003560e01c80631a16c15914610051578063ab66509c1461006f578063d67b381e1461008b578063d886ad3d146100bb575b600080fd5b6100596100d9565b6040516100669190610d57565b60405180910390f35b610089600480360381019061008491906109e9565b6102bc565b005b6100a560048036038101906100a091906109c0565b61067f565b6040516100b29190610e85565b60405180910390f35b6100c3610697565b6040516100d09190610e85565b60405180910390f35b60606002805480602002602001604051908101604052809291908181526020016000905b828210156102b357838290600052602060002090600402016040518060800160405290816000820160009054906101000a900473ffffffffffffffffffffffffffffffffffffffff1673ffffffffffffffffffffffffffffffffffffffff1673ffffffffffffffffffffffffffffffffffffffff1681526020016001820180546101869061108b565b80601f01602080910402602001604051908101604052809291908181526020018280546101b29061108b565b80156101ff5780601f106101d4576101008083540402835291602001916101ff565b820191906000526020600020905b8154815290600101906020018083116101e257829003601f168201915b505050505081526020016002820180546102189061108b565b80601f01602080910402602001604051908101604052809291908181526020018280546102449061108b565b80156102915780601f1061026657610100808354040283529160200191610291565b820191906000526020600020905b81548152906001019060200180831161027457829003601f168201915b50505050508152602001600382015481525050815260200190600101906100fd565b50505050905090565b42610384600360003373ffffffffffffffffffffffffffffffffffffffff1673ffffffffffffffffffffffffffffffffffffffff1681526020019081526020016000205461030a9190610fb7565b1061034a576040517f08c379a000000000000000000000000000000000000000000000000000000000815260040161034190610e45565b60405180910390fd5b42600360003373ffffffffffffffffffffffffffffffffffffffff1673ffffffffffffffffffffffffffffffffffffffff168152602001908152602001600020819055506000808154809291906103a0906110bd565b91905055506103c960405180606001604052806024815260200161121c60249139338385610739565b600260405180608001604052803373ffffffffffffffffffffffffffffffffffffffff16815260200184815260200183815260200142815250908060018154018082558091505060019003906000526020600020906004020160009091909190915060008201518160000160006101000a81548173ffffffffffffffffffffffffffffffffffffffff021916908373ffffffffffffffffffffffffffffffffffffffff160217905550602082015181600101908051906020019061048e9291906108a0565b5060408201518160020190805190602001906104ab9291906108a0565b50606082015181600301555050606460015442446104c99190610fb7565b6104d39190610fb7565b6104dd9190611106565b6001819055506032600154116106295761052c6040518060400160405280600b81526020017f25732076656e6365752121000000000000000000000000000000000000000000815250336107db565b6000655af3107a400090504781111561057a576040517f08c379a000000000000000000000000000000000000000000000000000000000815260040161057190610e25565b60405180910390fd5b60003373ffffffffffffffffffffffffffffffffffffffff16826040516105a090610d42565b60006040518083038185875af1925050503d80600081146105dd576040519150601f19603f3d011682016040523d82523d6000602084013e6105e2565b606091505b5050905080610626576040517f08c379a000000000000000000000000000000000000000000000000000000000815260040161061d90610e65565b60405180910390fd5b50505b3373ffffffffffffffffffffffffffffffffffffffff167f96b890c27090def5388feb32fedeade6cae5a726c41f8986d7958f777f79c6a642848460405161067393929190610ea0565b60405180910390a25050565b60036020528060005260406000206000915090505481565b60008054905090565b610736816040516024016106b49190610d79565b6040516020818303038152906040527f41304fac000000000000000000000000000000000000000000000000000000007bffffffffffffffffffffffffffffffffffffffffffffffffffffffff19166020820180517bffffffffffffffffffffffffffffffffffffffffffffffffffffffff8381831617835250505050610877565b50565b6107d5848484846040516024016107539493929190610dcb565b6040516020818303038152906040527f245986f2000000000000000000000000000000000000000000000000000000007bffffffffffffffffffffffffffffffffffffffffffffffffffffffff19166020820180517bffffffffffffffffffffffffffffffffffffffffffffffffffffffff8381831617835250505050610877565b50505050565b61087382826040516024016107f1929190610d9b565b6040516020818303038152906040527f319af333000000000000000000000000000000000000000000000000000000007bffffffffffffffffffffffffffffffffffffffffffffffffffffffff19166020820180517bffffffffffffffffffffffffffffffffffffffffffffffffffffffff8381831617835250505050610877565b5050565b60008151905060006a636f6e736f6c652e6c6f679050602083016000808483855afa5050505050565b8280546108ac9061108b565b90600052602060002090601f0160209004810192826108ce5760008555610915565b82601f106108e757805160ff1916838001178555610915565b82800160010185558215610915579182015b828111156109145782518255916020019190600101906108f9565b5b5090506109229190610926565b5090565b5b8082111561093f576000816000905550600101610927565b5090565b600061095661095184610f16565b610ee5565b90508281526020810184848401111561096e57600080fd5b610979848285611049565b509392505050565b60008135905061099081611204565b92915050565b600082601f8301126109a757600080fd5b81356109b7848260208601610943565b91505092915050565b6000602082840312156109d257600080fd5b60006109e084828501610981565b91505092915050565b600080604083850312156109fc57600080fd5b600083013567ffffffffffffffff811115610a1657600080fd5b610a2285828601610996565b925050602083013567ffffffffffffffff811115610a3f57600080fd5b610a4b85828601610996565b9150509250929050565b6000610a618383610cba565b905092915050565b610a728161100d565b82525050565b610a818161100d565b82525050565b6000610a9282610f56565b610a9c8185610f79565b935083602082028501610aae85610f46565b8060005b85811015610aea5784840389528151610acb8582610a55565b9450610ad683610f6c565b925060208a01995050600181019050610ab2565b50829750879550505050505092915050565b6000610b0782610f61565b610b118185610f95565b9350610b21818560208601611058565b610b2a816111f3565b840191505092915050565b6000610b4082610f61565b610b4a8185610fa6565b9350610b5a818560208601611058565b610b63816111f3565b840191505092915050565b6000610b7b603383610fa6565b91507f54656e74616e646f207361636172206d6169732064696e686569726f2071756560008301527f206f20636f6e747261746f20706f737375692e000000000000000000000000006020830152604082019050919050565b6000610be1602c83610fa6565b91507f41677561726465203135206d696e75746f732e2e2e20506172612074656e746160008301527f72206e6f76616d656e74652e00000000000000000000000000000000000000006020830152604082019050919050565b6000610c47600083610f8a565b9150600082019050919050565b6000610c61602583610fa6565b91507f46616c686f7520656d2073616361722064696e686569726f20646f20636f6e7460008301527f7261746f2e0000000000000000000000000000000000000000000000000000006020830152604082019050919050565b6000608083016000830151610cd26000860182610a69565b5060208301518482036020860152610cea8282610afc565b91505060408301518482036040860152610d048282610afc565b9150506060830151610d196060860182610d24565b508091505092915050565b610d2d8161103f565b82525050565b610d3c8161103f565b82525050565b6000610d4d82610c3a565b9150819050919050565b60006020820190508181036000830152610d718184610a87565b905092915050565b60006020820190508181036000830152610d938184610b35565b905092915050565b60006040820190508181036000830152610db58185610b35565b9050610dc46020830184610a78565b9392505050565b60006080820190508181036000830152610de58187610b35565b9050610df46020830186610a78565b8181036040830152610e068185610b35565b90508181036060830152610e1a8184610b35565b905095945050505050565b60006020820190508181036000830152610e3e81610b6e565b9050919050565b60006020820190508181036000830152610e5e81610bd4565b9050919050565b60006020820190508181036000830152610e7e81610c54565b9050919050565b6000602082019050610e9a6000830184610d33565b92915050565b6000606082019050610eb56000830186610d33565b8181036020830152610ec78185610b35565b90508181036040830152610edb8184610b35565b9050949350505050565b6000604051905081810181811067ffffffffffffffff82111715610f0c57610f0b6111c4565b5b8060405250919050565b600067ffffffffffffffff821115610f3157610f306111c4565b5b601f19601f8301169050602081019050919050565b6000819050602082019050919050565b600081519050919050565b600081519050919050565b6000602082019050919050565b600082825260208201905092915050565b600081905092915050565b600082825260208201905092915050565b600082825260208201905092915050565b6000610fc28261103f565b9150610fcd8361103f565b9250827fffffffffffffffffffffffffffffffffffffffffffffffffffffffffffffffff0382111561100257611001611137565b5b828201905092915050565b60006110188261101f565b9050919050565b600073ffffffffffffffffffffffffffffffffffffffff82169050919050565b6000819050919050565b82818337600083830152505050565b60005b8381101561107657808201518184015260208101905061105b565b83811115611085576000848401525b50505050565b600060028204905060018216806110a357607f821691505b602082108114156110b7576110b6611195565b5b50919050565b60006110c88261103f565b91507fffffffffffffffffffffffffffffffffffffffffffffffffffffffffffffffff8214156110fb576110fa611137565b5b600182019050919050565b60006111118261103f565b915061111c8361103f565b92508261112c5761112b611166565b5b828206905092915050565b7f4e487b7100000000000000000000000000000000000000000000000000000000600052601160045260246000fd5b7f4e487b7100000000000000000000000000000000000000000000000000000000600052601260045260246000fd5b7f4e487b7100000000000000000000000000000000000000000000000000000000600052602260045260246000fd5b7f4e487b7100000000000000000000000000000000000000000000000000000000600052604160045260246000fd5b6000601f19601f8301169050919050565b61120d8161100d565b811461121857600080fd5b5056fe257320696e6469636f75206f206c6976726f20257320646f206175746f72286129202573a2646970667358221220c9b6d9f0d7f391e78b97a787164652fd32c65898ad14ed724b61c43be020589264736f6c63430008000033",
    "linkReferences": {},
    "deployedLinkReferences": {}
}